{
  "_format": "hh-sol-artifact-1",
  "contractName": "DatahotpotMarketplace",
  "sourceName": "contracts/DatahotpotMarketplace.sol",
  "abi": [
    {
      "inputs": [],
      "stateMutability": "nonpayable",
      "type": "constructor"
    },
    {
      "anonymous": false,
      "inputs": [
        {
          "indexed": true,
          "internalType": "uint256",
          "name": "itemId",
          "type": "uint256"
        },
        {
          "indexed": true,
          "internalType": "address",
          "name": "nftContract",
          "type": "address"
        },
        {
          "indexed": true,
          "internalType": "uint256",
          "name": "tokenId",
          "type": "uint256"
        },
        {
          "indexed": false,
          "internalType": "address",
          "name": "creator",
          "type": "address"
        },
        {
          "indexed": false,
          "internalType": "address",
          "name": "seller",
          "type": "address"
        },
        {
          "indexed": false,
          "internalType": "address",
          "name": "owner",
          "type": "address"
        },
        {
          "indexed": false,
          "internalType": "uint256",
          "name": "price",
          "type": "uint256"
        }
      ],
      "name": "MarketItemCreated",
      "type": "event"
    },
    {
      "anonymous": false,
      "inputs": [
        {
          "indexed": false,
          "internalType": "uint256",
          "name": "itemId",
          "type": "uint256"
        }
      ],
      "name": "MarketItemDeleted",
      "type": "event"
    },
    {
      "anonymous": false,
      "inputs": [
        {
          "indexed": true,
          "internalType": "uint256",
          "name": "itemId",
          "type": "uint256"
        }
      ],
      "name": "ProductListed",
      "type": "event"
    },
    {
      "anonymous": false,
      "inputs": [
        {
          "indexed": true,
          "internalType": "uint256",
          "name": "itemId",
          "type": "uint256"
        },
        {
          "indexed": true,
          "internalType": "address",
          "name": "nftContract",
          "type": "address"
        },
        {
          "indexed": true,
          "internalType": "uint256",
          "name": "tokenId",
          "type": "uint256"
        },
        {
          "indexed": false,
          "internalType": "address",
          "name": "creator",
          "type": "address"
        },
        {
          "indexed": false,
          "internalType": "address",
          "name": "seller",
          "type": "address"
        },
        {
          "indexed": false,
          "internalType": "address",
          "name": "owner",
          "type": "address"
        },
        {
          "indexed": false,
          "internalType": "uint256",
          "name": "price",
          "type": "uint256"
        }
      ],
      "name": "ProductSold",
      "type": "event"
    },
    {
      "anonymous": false,
      "inputs": [
        {
          "indexed": true,
          "internalType": "uint256",
          "name": "itemId",
          "type": "uint256"
        },
        {
          "indexed": true,
          "internalType": "uint256",
          "name": "oldPrice",
          "type": "uint256"
        },
        {
          "indexed": true,
          "internalType": "uint256",
          "name": "newPrice",
          "type": "uint256"
        }
      ],
      "name": "ProductUpdated",
      "type": "event"
    },
    {
      "inputs": [
        {
          "internalType": "address",
          "name": "nftContract",
          "type": "address"
        },
        {
          "internalType": "uint256",
          "name": "tokenId",
          "type": "uint256"
        },
        {
          "internalType": "uint256",
          "name": "price",
          "type": "uint256"
        }
      ],
      "name": "createMarketItem",
      "outputs": [],
      "stateMutability": "payable",
      "type": "function"
    },
    {
      "inputs": [
        {
          "internalType": "address",
          "name": "nftContract",
          "type": "address"
        },
        {
          "internalType": "uint256",
          "name": "itemId",
          "type": "uint256"
        },
        {
          "internalType": "uint256",
          "name": "price",
          "type": "uint256"
        }
      ],
      "name": "createMarketSale",
      "outputs": [],
      "stateMutability": "payable",
      "type": "function"
    },
    {
      "inputs": [
        {
          "internalType": "address",
          "name": "author",
          "type": "address"
        }
      ],
      "name": "fetchAuthorsCreations",
      "outputs": [
        {
          "components": [
            {
              "internalType": "uint256",
              "name": "itemId",
              "type": "uint256"
            },
            {
              "internalType": "address",
              "name": "nftContract",
              "type": "address"
            },
            {
              "internalType": "uint256",
              "name": "tokenId",
              "type": "uint256"
            },
            {
              "internalType": "address payable",
              "name": "creator",
              "type": "address"
            },
            {
              "internalType": "address payable",
              "name": "seller",
              "type": "address"
            },
            {
              "internalType": "address payable",
              "name": "owner",
              "type": "address"
            },
            {
              "internalType": "uint256",
              "name": "price",
              "type": "uint256"
            },
            {
              "internalType": "bool",
              "name": "isSold",
              "type": "bool"
            }
          ],
          "internalType": "struct DatahotpotMarketplace.MarketItem[]",
          "name": "",
          "type": "tuple[]"
        }
      ],
      "stateMutability": "view",
      "type": "function"
    },
    {
      "inputs": [],
      "name": "fetchMarketItems",
      "outputs": [
        {
          "components": [
            {
              "internalType": "uint256",
              "name": "itemId",
              "type": "uint256"
            },
            {
              "internalType": "address",
              "name": "nftContract",
              "type": "address"
            },
            {
              "internalType": "uint256",
              "name": "tokenId",
              "type": "uint256"
            },
            {
              "internalType": "address payable",
              "name": "creator",
              "type": "address"
            },
            {
              "internalType": "address payable",
              "name": "seller",
              "type": "address"
            },
            {
              "internalType": "address payable",
              "name": "owner",
              "type": "address"
            },
            {
              "internalType": "uint256",
              "name": "price",
              "type": "uint256"
            },
            {
              "internalType": "bool",
              "name": "isSold",
              "type": "bool"
            }
          ],
          "internalType": "struct DatahotpotMarketplace.MarketItem[]",
          "name": "",
          "type": "tuple[]"
        }
      ],
      "stateMutability": "view",
      "type": "function"
    },
    {
      "inputs": [],
      "name": "fetchMyNFTs",
      "outputs": [
        {
          "components": [
            {
              "internalType": "uint256",
              "name": "itemId",
              "type": "uint256"
            },
            {
              "internalType": "address",
              "name": "nftContract",
              "type": "address"
            },
            {
              "internalType": "uint256",
              "name": "tokenId",
              "type": "uint256"
            },
            {
              "internalType": "address payable",
              "name": "creator",
              "type": "address"
            },
            {
              "internalType": "address payable",
              "name": "seller",
              "type": "address"
            },
            {
              "internalType": "address payable",
              "name": "owner",
              "type": "address"
            },
            {
              "internalType": "uint256",
              "name": "price",
              "type": "uint256"
            },
            {
              "internalType": "bool",
              "name": "isSold",
              "type": "bool"
            }
          ],
          "internalType": "struct DatahotpotMarketplace.MarketItem[]",
          "name": "",
          "type": "tuple[]"
        }
      ],
      "stateMutability": "view",
      "type": "function"
    },
    {
      "inputs": [
        {
          "internalType": "address",
          "name": "addr",
          "type": "address"
        }
      ],
      "name": "fetchNFTsByAddress",
      "outputs": [
        {
          "components": [
            {
              "internalType": "uint256",
              "name": "itemId",
              "type": "uint256"
            },
            {
              "internalType": "address",
              "name": "nftContract",
              "type": "address"
            },
            {
              "internalType": "uint256",
              "name": "tokenId",
              "type": "uint256"
            },
            {
              "internalType": "address payable",
              "name": "creator",
              "type": "address"
            },
            {
              "internalType": "address payable",
              "name": "seller",
              "type": "address"
            },
            {
              "internalType": "address payable",
              "name": "owner",
              "type": "address"
            },
            {
              "internalType": "uint256",
              "name": "price",
              "type": "uint256"
            },
            {
              "internalType": "bool",
              "name": "isSold",
              "type": "bool"
            }
          ],
          "internalType": "struct DatahotpotMarketplace.MarketItem[]",
          "name": "",
          "type": "tuple[]"
        }
      ],
      "stateMutability": "view",
      "type": "function"
    },
    {
      "inputs": [
        {
          "internalType": "uint256",
          "name": "id",
          "type": "uint256"
        }
      ],
      "name": "fetchSingleItem",
      "outputs": [
        {
          "components": [
            {
              "internalType": "uint256",
              "name": "itemId",
              "type": "uint256"
            },
            {
              "internalType": "address",
              "name": "nftContract",
              "type": "address"
            },
            {
              "internalType": "uint256",
              "name": "tokenId",
              "type": "uint256"
            },
            {
              "internalType": "address payable",
              "name": "creator",
              "type": "address"
            },
            {
              "internalType": "address payable",
              "name": "seller",
              "type": "address"
            },
            {
              "internalType": "address payable",
              "name": "owner",
              "type": "address"
            },
            {
              "internalType": "uint256",
              "name": "price",
              "type": "uint256"
            },
            {
              "internalType": "bool",
              "name": "isSold",
              "type": "bool"
            }
          ],
          "internalType": "struct DatahotpotMarketplace.MarketItem",
          "name": "",
          "type": "tuple"
        }
      ],
      "stateMutability": "view",
      "type": "function"
    },
    {
      "inputs": [],
      "name": "getListingPrice",
      "outputs": [
        {
          "internalType": "uint256",
          "name": "",
          "type": "uint256"
        }
      ],
      "stateMutability": "view",
      "type": "function"
    },
    {
      "inputs": [
        {
          "internalType": "address",
          "name": "nftContract",
          "type": "address"
        },
        {
          "internalType": "uint256",
          "name": "itemId",
          "type": "uint256"
        },
        {
          "internalType": "uint256",
          "name": "newPrice",
          "type": "uint256"
        }
      ],
      "name": "putItemToResell",
      "outputs": [],
      "stateMutability": "payable",
      "type": "function"
    },
    {
      "inputs": [
        {
          "internalType": "uint256",
          "name": "id",
          "type": "uint256"
        },
        {
          "internalType": "uint256",
          "name": "newPrice",
          "type": "uint256"
        }
      ],
      "name": "updateMarketItemPrice",
      "outputs": [],
      "stateMutability": "payable",
      "type": "function"
    }
  ],
  "bytecode": "0x608060405266038d7ea4c6800060055566038d7ea4c6800060065534801561002657600080fd5b506001600055600480546001600160a01b0319163317905561160c8061004d6000396000f3fe6080604052600436106100915760003560e01c806358eb2df51161005957806358eb2df51461011c5780636c8081ed1461012f578063733e49301461014f578063a2bf932a1461016f578063ae13a3171461019c57600080fd5b80630f08efe01461009657806312e85585146100c1578063202e3740146100df57806321cf91ac146100f457806358271fff14610109575b600080fd5b3480156100a257600080fd5b506100ab6101af565b6040516100b89190611417565b60405180910390f35b3480156100cd57600080fd5b506005546040519081526020016100b8565b3480156100eb57600080fd5b506100ab6103b1565b61010761010236600461147e565b610586565b005b61010761011736600461147e565b610897565b61010761012a36600461147e565b610ac4565b34801561013b57600080fd5b506100ab61014a3660046114b3565b610d18565b34801561015b57600080fd5b506100ab61016a3660046114b3565b610f69565b34801561017b57600080fd5b5061018f61018a3660046114d7565b611150565b6040516100b891906114f0565b6101076101aa366004611505565b6111d9565b606060006101bc60015490565b905060006101c960035490565b6002546001546101d9919061153d565b6101e3919061153d565b90506000808267ffffffffffffffff81111561020157610201611550565b60405190808252806020026020018201604052801561023a57816020015b610227611371565b81526020019060019003908161021f5790505b50905060005b848110156103a8576000600781610258846001611566565b81526020810191909152604001600020600501546001600160a01b03161480156102a557506007600061028c836001611566565b815260208101919091526040016000206007015460ff16155b80156102d25750600760006102bb836001611566565b815260200190815260200160002060020154600014155b156103965760006102e4826001611566565b6000818152600760208181526040928390208351610100810185528154815260018201546001600160a01b0390811693820193909352600282015494810194909452600381015482166060850152600481015482166080850152600581015490911660a0840152600681015460c08401529081015460ff16151560e083015285519293509185908790811061037b5761037b611579565b6020908102919091010152610391600186611566565b945050505b806103a08161158f565b915050610240565b50949350505050565b606060006103be60015490565b905060008060005b838110156104205733600760006103de846001611566565b81526020810191909152604001600020600501546001600160a01b03160361040e5761040b600184611566565b92505b806104188161158f565b9150506103c6565b5060008267ffffffffffffffff81111561043c5761043c611550565b60405190808252806020026020018201604052801561047557816020015b610462611371565b81526020019060019003908161045a5790505b50905060005b848110156103a8573360076000610493846001611566565b81526020810191909152604001600020600501546001600160a01b0316036105745760006104c2826001611566565b6000818152600760208181526040928390208351610100810185528154815260018201546001600160a01b0390811693820193909352600282015494810194909452600381015482166060850152600481015482166080850152600581015490911660a0840152600681015460c08401529081015460ff16151560e083015285519293509185908790811061055957610559611579565b602090810291909101015261056f600186611566565b945050505b8061057e8161158f565b91505061047b565b61058e6112c1565b60008281526007602052604090206006810154600290910154828214610623576040805162461bcd60e51b81526020600482015260248101919091527f506c65617365207375626d6974207468652061736b696e67207072696365206960448201527f6e206f7264657220746f20636f6d706c6574652074686520707572636861736560648201526084015b60405180910390fd5b6000848152600760205260408082206004015490516001600160a01b039091169185156108fc02918691818181858888f1935050505015801561066a573d6000803e3d6000fd5b5060405163152a902d60e11b8152600481018290526024810184905260009081906001600160a01b03881690632a55205a906044016040805180830381865afa1580156106bb573d6000803e3d6000fd5b505050506040513d601f19601f820116820180604052508101906106df91906115a8565b60405191935091506001600160a01b0383169082156108fc029083906000818181858888f1935050505015801561071a573d6000803e3d6000fd5b506040516323b872dd60e01b8152306004820152336024820152604481018490526001600160a01b038816906323b872dd90606401600060405180830381600087803b15801561076957600080fd5b505af115801561077d573d6000803e3d6000fd5b50505060008781526007602081905260409091206005810180546001600160a01b0319163317905501805460ff19166001179055506107c0600280546001019055565b6004546005546040516001600160a01b039092169181156108fc0291906000818181858888f193505050501580156107fc573d6000803e3d6000fd5b506000868152600760209081526040918290206002810154600182015482546003840154600485015460069095015487516001600160a01b039283168152958216968601969096523385880152606085019590955294519194931692917fa3995d82a47846edcc310e87a16f5a2cd75d32a7cf59cbd513e132bced64ee8f919081900360800190a4505050506108926001600055565b505050565b60008281526007602052604090206005015482906001600160a01b031633146109135760405162461bcd60e51b815260206004820152602860248201527f4f6e6c792070726f64756374206f776e65722063616e20646f2074686973206f6044820152673832b930ba34b7b760c11b606482015260840161061a565b600083815260076020526040902060020154826109725760405162461bcd60e51b815260206004820152601c60248201527f5072696365206d757374206265206174206c6561737420312077656900000000604482015260640161061a565b60055434146109cf5760405162461bcd60e51b8152602060048201526024808201527f5072696365206d75737420626520657175616c20746f206c697374696e6720706044820152637269636560e01b606482015260840161061a565b6040516323b872dd60e01b8152336004820152306024820152604481018290526001600160a01b038616906323b872dd90606401600060405180830381600087803b158015610a1d57600080fd5b505af1158015610a31573d6000803e3d6000fd5b50505060008581526007602081905260409091206005810180546001600160a01b03198082169092556004830180549092166001600160a01b03909116908117909155600682018790559101805460ff191690559050610a91600261131a565b60405185907f221866c21613d6f0d77d42f9309b122a25deed1bc186cff9c2f1ddafc52c34f690600090a2505050505050565b610acc6112c1565b60008111610b1c5760405162461bcd60e51b815260206004820152601c60248201527f5072696365206d757374206265206174206c6561737420312077656900000000604482015260640161061a565b6005543414610b645760405162461bcd60e51b8152602060048201526014602482015273131a5cdd1a5b99c8199959481c995c5d5a5c995960621b604482015260640161061a565b610b72600180546001019055565b6000610b7d60015490565b60408051610100810182528281526001600160a01b0387811660208084018281528486018a8152336060870181815260808801828152600060a08a0181815260c08b018f815260e08c018381528e84526007998a9052928d90209b518c55965160018c0180546001600160a01b0319908116928d16929092179055955160028c0155925160038b0180548716918b1691909117905590516004808b0180548716928b1692909217909155915160058a01805490951698169790971790925591516006870155935194909101805460ff19169415159490941790935592516323b872dd60e01b81529081019190915230602482015260448101869052919250906323b872dd90606401600060405180830381600087803b158015610c9f57600080fd5b505af1158015610cb3573d6000803e3d6000fd5b5050604080513380825260208201526000818301526060810186905290518693506001600160a01b038816925084917f7990294cab81bf6b251c45c1a6b14c27edfac0c2b574fc3dbea97ebe60dfbb94919081900360800190a4506108926001600055565b60606000610d2560015490565b905060008060005b83811015610dc0576001600160a01b03861660076000610d4e846001611566565b81526020810191909152604001600020600301546001600160a01b0316148015610d9b575060076000610d82836001611566565b815260208101919091526040016000206007015460ff16155b15610dae57610dab600184611566565b92505b80610db88161158f565b915050610d2d565b5060008267ffffffffffffffff811115610ddc57610ddc611550565b604051908082528060200260200182016040528015610e1557816020015b610e02611371565b815260200190600190039081610dfa5790505b50905060005b84811015610f5f576001600160a01b03871660076000610e3c846001611566565b81526020810191909152604001600020600301546001600160a01b0316148015610e89575060076000610e70836001611566565b815260208101919091526040016000206007015460ff16155b15610f4d576000610e9b826001611566565b6000818152600760208181526040928390208351610100810185528154815260018201546001600160a01b0390811693820193909352600282015494810194909452600381015482166060850152600481015482166080850152600581015490911660a0840152600681015460c08401529081015460ff16151560e0830152855192935091859087908110610f3257610f32611579565b6020908102919091010152610f48600186611566565b945050505b80610f578161158f565b915050610e1b565b5095945050505050565b60606000610f7660015490565b905060008060005b83811015610fe1576001600160a01b03861660076000610f9f846001611566565b81526020810191909152604001600020600501546001600160a01b031603610fcf57610fcc600184611566565b92505b80610fd98161158f565b915050610f7e565b5060008267ffffffffffffffff811115610ffd57610ffd611550565b60405190808252806020026020018201604052801561103657816020015b611023611371565b81526020019060019003908161101b5790505b50905060005b84811015610f5f576001600160a01b0387166007600061105d846001611566565b81526020810191909152604001600020600501546001600160a01b03160361113e57600061108c826001611566565b6000818152600760208181526040928390208351610100810185528154815260018201546001600160a01b0390811693820193909352600282015494810194909452600381015482166060850152600481015482166080850152600581015490911660a0840152600681015460c08401529081015460ff16151560e083015285519293509185908790811061112357611123611579565b6020908102919091010152611139600186611566565b945050505b806111488161158f565b91505061103c565b611158611371565b506000908152600760208181526040928390208351610100810185528154815260018201546001600160a01b0390811693820193909352600282015494810194909452600381015482166060850152600481015482166080850152600581015490911660a0840152600681015460c0840152015460ff16151560e082015290565b60008281526007602052604090206005015482906001600160a01b031615801561121c57506000818152600760205260409020600401546001600160a01b031633145b6112735760405162461bcd60e51b815260206004820152602260248201527f4f6e6c792070726f647563742063616e20646f2074686973206f70657261746960448201526137b760f11b606482015260840161061a565b60008381526007602052604080822060068101805490869055915190928591839188917fc598db734b93c7fd9412e07c1e464ebb4d3dcf9b02c03af26710b307f8b773db9190a45050505050565b6002600054036113135760405162461bcd60e51b815260206004820152601f60248201527f5265656e7472616e637947756172643a207265656e7472616e742063616c6c00604482015260640161061a565b6002600055565b8054806113695760405162461bcd60e51b815260206004820152601b60248201527f436f756e7465723a2064656372656d656e74206f766572666c6f770000000000604482015260640161061a565b600019019055565b6040805161010081018252600080825260208201819052918101829052606081018290526080810182905260a0810182905260c0810182905260e081019190915290565b80518252602081015160018060a01b038082166020850152604083015160408501528060608401511660608501528060808401511660808501528060a08401511660a0850152505060c081015160c083015260e0810151151560e08301525050565b6020808252825182820181905260009190848201906040850190845b8181101561145a576114468385516113b5565b928401926101009290920191600101611433565b50909695505050505050565b6001600160a01b038116811461147b57600080fd5b50565b60008060006060848603121561149357600080fd5b833561149e81611466565b95602085013595506040909401359392505050565b6000602082840312156114c557600080fd5b81356114d081611466565b9392505050565b6000602082840312156114e957600080fd5b5035919050565b61010081016114ff82846113b5565b92915050565b6000806040838503121561151857600080fd5b50508035926020909101359150565b634e487b7160e01b600052601160045260246000fd5b818103818111156114ff576114ff611527565b634e487b7160e01b600052604160045260246000fd5b808201808211156114ff576114ff611527565b634e487b7160e01b600052603260045260246000fd5b6000600182016115a1576115a1611527565b5060010190565b600080604083850312156115bb57600080fd5b82516115c681611466565b602093909301519294929350505056fea26469706673582212202c05b076f5ad2f8fbb0fed86945e77cd27611667ae4d9b6361f07c771314c06d64736f6c63430008110033",
  "linkReferences": {},
  "deployedLinkReferences": {}
}