{
  "_format": "hh-sol-artifact-1",
  "contractName": "DataNFT",
  "sourceName": "contracts/DataNFT.sol",
  "abi": [
    {
      "inputs": [
        {
          "internalType": "address",
          "name": "_marketplaceAddress",
          "type": "address"
        },
        {
          "internalType": "string",
          "name": "dataUrl_",
          "type": "string"
        },
        {
          "internalType": "string",
          "name": "metadata_",
          "type": "string"
        }
      ],
      "stateMutability": "nonpayable",
      "type": "constructor"
    },
    {
      "anonymous": false,
      "inputs": [
        {
          "indexed": true,
          "internalType": "address",
          "name": "owner",
          "type": "address"
        },
        {
          "indexed": true,
          "internalType": "address",
          "name": "approved",
          "type": "address"
        },
        {
          "indexed": true,
          "internalType": "uint256",
          "name": "tokenId",
          "type": "uint256"
        }
      ],
      "name": "Approval",
      "type": "event"
    },
    {
      "anonymous": false,
      "inputs": [
        {
          "indexed": true,
          "internalType": "address",
          "name": "owner",
          "type": "address"
        },
        {
          "indexed": true,
          "internalType": "address",
          "name": "operator",
          "type": "address"
        },
        {
          "indexed": false,
          "internalType": "bool",
          "name": "approved",
          "type": "bool"
        }
      ],
      "name": "ApprovalForAll",
      "type": "event"
    },
    {
      "anonymous": false,
      "inputs": [
        {
          "indexed": true,
          "internalType": "address",
          "name": "from",
          "type": "address"
        },
        {
          "indexed": true,
          "internalType": "address",
          "name": "to",
          "type": "address"
        },
        {
          "indexed": true,
          "internalType": "uint256",
          "name": "tokenId",
          "type": "uint256"
        }
      ],
      "name": "Transfer",
      "type": "event"
    },
    {
      "inputs": [
        {
          "internalType": "address",
          "name": "to",
          "type": "address"
        },
        {
          "internalType": "uint256",
          "name": "tokenId",
          "type": "uint256"
        }
      ],
      "name": "approve",
      "outputs": [],
      "stateMutability": "nonpayable",
      "type": "function"
    },
    {
      "inputs": [
        {
          "internalType": "address",
          "name": "owner",
          "type": "address"
        }
      ],
      "name": "balanceOf",
      "outputs": [
        {
          "internalType": "uint256",
          "name": "",
          "type": "uint256"
        }
      ],
      "stateMutability": "view",
      "type": "function"
    },
    {
      "inputs": [
        {
          "internalType": "uint96",
          "name": "_feeNumerator",
          "type": "uint96"
        }
      ],
      "name": "createToken",
      "outputs": [
        {
          "internalType": "uint256",
          "name": "",
          "type": "uint256"
        }
      ],
      "stateMutability": "nonpayable",
      "type": "function"
    },
    {
      "inputs": [
        {
          "internalType": "uint256",
          "name": "tokenId",
          "type": "uint256"
        }
      ],
      "name": "getApproved",
      "outputs": [
        {
          "internalType": "address",
          "name": "",
          "type": "address"
        }
      ],
      "stateMutability": "view",
      "type": "function"
    },
    {
      "inputs": [
        {
          "internalType": "uint256",
          "name": "tokenId",
          "type": "uint256"
        }
      ],
      "name": "getDataUrl",
      "outputs": [
        {
          "internalType": "string",
          "name": "",
          "type": "string"
        }
      ],
      "stateMutability": "view",
      "type": "function"
    },
    {
      "inputs": [],
      "name": "getMarketplaceAddress",
      "outputs": [
        {
          "internalType": "address",
          "name": "",
          "type": "address"
        }
      ],
      "stateMutability": "view",
      "type": "function"
    },
    {
      "inputs": [],
      "name": "getMetadata",
      "outputs": [
        {
          "internalType": "string",
          "name": "",
          "type": "string"
        }
      ],
      "stateMutability": "view",
      "type": "function"
    },
    {
      "inputs": [
        {
          "internalType": "address",
          "name": "owner",
          "type": "address"
        },
        {
          "internalType": "address",
          "name": "operator",
          "type": "address"
        }
      ],
      "name": "isApprovedForAll",
      "outputs": [
        {
          "internalType": "bool",
          "name": "",
          "type": "bool"
        }
      ],
      "stateMutability": "view",
      "type": "function"
    },
    {
      "inputs": [],
      "name": "name",
      "outputs": [
        {
          "internalType": "string",
          "name": "",
          "type": "string"
        }
      ],
      "stateMutability": "view",
      "type": "function"
    },
    {
      "inputs": [
        {
          "internalType": "uint256",
          "name": "tokenId",
          "type": "uint256"
        }
      ],
      "name": "ownerOf",
      "outputs": [
        {
          "internalType": "address",
          "name": "",
          "type": "address"
        }
      ],
      "stateMutability": "view",
      "type": "function"
    },
    {
      "inputs": [
        {
          "internalType": "uint256",
          "name": "tokenId",
          "type": "uint256"
        }
      ],
      "name": "resetTokenRoyalty",
      "outputs": [],
      "stateMutability": "nonpayable",
      "type": "function"
    },
    {
      "inputs": [
        {
          "internalType": "uint256",
          "name": "_tokenId",
          "type": "uint256"
        },
        {
          "internalType": "uint256",
          "name": "_salePrice",
          "type": "uint256"
        }
      ],
      "name": "royaltyInfo",
      "outputs": [
        {
          "internalType": "address",
          "name": "",
          "type": "address"
        },
        {
          "internalType": "uint256",
          "name": "",
          "type": "uint256"
        }
      ],
      "stateMutability": "view",
      "type": "function"
    },
    {
      "inputs": [
        {
          "internalType": "address",
          "name": "from",
          "type": "address"
        },
        {
          "internalType": "address",
          "name": "to",
          "type": "address"
        },
        {
          "internalType": "uint256",
          "name": "tokenId",
          "type": "uint256"
        }
      ],
      "name": "safeTransferFrom",
      "outputs": [],
      "stateMutability": "nonpayable",
      "type": "function"
    },
    {
      "inputs": [
        {
          "internalType": "address",
          "name": "from",
          "type": "address"
        },
        {
          "internalType": "address",
          "name": "to",
          "type": "address"
        },
        {
          "internalType": "uint256",
          "name": "tokenId",
          "type": "uint256"
        },
        {
          "internalType": "bytes",
          "name": "data",
          "type": "bytes"
        }
      ],
      "name": "safeTransferFrom",
      "outputs": [],
      "stateMutability": "nonpayable",
      "type": "function"
    },
    {
      "inputs": [
        {
          "internalType": "address",
          "name": "operator",
          "type": "address"
        },
        {
          "internalType": "bool",
          "name": "approved",
          "type": "bool"
        }
      ],
      "name": "setApprovalForAll",
      "outputs": [],
      "stateMutability": "nonpayable",
      "type": "function"
    },
    {
      "inputs": [
        {
          "internalType": "uint256",
          "name": "tokenId",
          "type": "uint256"
        },
        {
          "internalType": "address",
          "name": "receiver",
          "type": "address"
        },
        {
          "internalType": "uint96",
          "name": "feeNumerator",
          "type": "uint96"
        }
      ],
      "name": "setTokenRoyalty",
      "outputs": [],
      "stateMutability": "nonpayable",
      "type": "function"
    },
    {
      "inputs": [
        {
          "internalType": "bytes4",
          "name": "interfaceId",
          "type": "bytes4"
        }
      ],
      "name": "supportsInterface",
      "outputs": [
        {
          "internalType": "bool",
          "name": "",
          "type": "bool"
        }
      ],
      "stateMutability": "view",
      "type": "function"
    },
    {
      "inputs": [],
      "name": "symbol",
      "outputs": [
        {
          "internalType": "string",
          "name": "",
          "type": "string"
        }
      ],
      "stateMutability": "view",
      "type": "function"
    },
    {
      "inputs": [
        {
          "internalType": "uint256",
          "name": "tokenId",
          "type": "uint256"
        }
      ],
      "name": "tokenURI",
      "outputs": [
        {
          "internalType": "string",
          "name": "",
          "type": "string"
        }
      ],
      "stateMutability": "view",
      "type": "function"
    },
    {
      "inputs": [
        {
          "internalType": "address",
          "name": "from",
          "type": "address"
        },
        {
          "internalType": "address",
          "name": "to",
          "type": "address"
        },
        {
          "internalType": "uint256",
          "name": "tokenId",
          "type": "uint256"
        }
      ],
      "name": "transferFrom",
      "outputs": [],
      "stateMutability": "nonpayable",
      "type": "function"
    }
  ],
  "bytecode": "0x60806040523480156200001157600080fd5b506040516200201d3803806200201d8339810160408190526200003491620001b0565b6040518060400160405280600e81526020016d11185d185a1bdd1c1bdd0813919560921b815250604051806040016040528060048152602001631113919560e21b8152508160029081620000899190620002c9565b506003620000988282620002c9565b5050600e8054336001600160a01b031991821617909155600f80549091166001600160a01b03861617905550600a620000d28382620002c9565b50600d620000e18282620002c9565b5050505062000395565b634e487b7160e01b600052604160045260246000fd5b600082601f8301126200011357600080fd5b81516001600160401b0380821115620001305762000130620000eb565b604051601f8301601f19908116603f011681019082821181831017156200015b576200015b620000eb565b816040528381526020925086838588010111156200017857600080fd5b600091505b838210156200019c57858201830151818301840152908201906200017d565b600093810190920192909252949350505050565b600080600060608486031215620001c657600080fd5b83516001600160a01b0381168114620001de57600080fd5b60208501519093506001600160401b0380821115620001fc57600080fd5b6200020a8783880162000101565b935060408601519150808211156200022157600080fd5b50620002308682870162000101565b9150509250925092565b600181811c908216806200024f57607f821691505b6020821081036200027057634e487b7160e01b600052602260045260246000fd5b50919050565b601f821115620002c457600081815260208120601f850160051c810160208610156200029f5750805b601f850160051c820191505b81811015620002c057828155600101620002ab565b5050505b505050565b81516001600160401b03811115620002e557620002e5620000eb565b620002fd81620002f684546200023a565b8462000276565b602080601f8311600181146200033557600084156200031c5750858301515b600019600386901b1c1916600185901b178555620002c0565b600085815260208120601f198616915b82811015620003665788860151825594840194600190910190840162000345565b5085821015620003855787850151600019600388901b60f8161c191681555b5050505050600190811b01905550565b611c7880620003a56000396000f3fe608060405234801561001057600080fd5b506004361061012c5760003560e01c806370a08231116100ad578063a44b76fe11610071578063a44b76fe14610296578063b88d4fde146102a9578063bb8fe785146102bc578063c87b56dd146102cd578063e985e9c5146102e057600080fd5b806370a082311461024d5780637a5b4f59146102605780638a616bc01461026857806395d89b411461027b578063a22cb4651461028357600080fd5b80632a55205a116100f45780632a55205a146101c157806342842e0e146101f357806350e4f038146102065780635944c753146102275780636352211e1461023a57600080fd5b806301ffc9a71461013157806306fdde0314610159578063081812fc1461016e578063095ea7b31461019957806323b872dd146101ae575b600080fd5b61014461013f3660046115bf565b6102f3565b60405190151581526020015b60405180910390f35b610161610304565b604051610150919061162c565b61018161017c36600461163f565b610396565b6040516001600160a01b039091168152602001610150565b6101ac6101a736600461166f565b6103bd565b005b6101ac6101bc366004611699565b6104d7565b6101d46101cf3660046116d5565b610508565b604080516001600160a01b039093168352602083019190915201610150565b6101ac610201366004611699565b6105b4565b61021961021436600461170e565b6105cf565b604051908152602001610150565b6101ac610235366004611729565b6106ec565b61018161024836600461163f565b610721565b61021961025b366004611765565b610781565b610161610807565b6101ac61027636600461163f565b610816565b610161610854565b6101ac610291366004611780565b610863565b6101616102a436600461163f565b610872565b6101ac6102b73660046117d2565b610970565b600f546001600160a01b0316610181565b6101616102db36600461163f565b6109a8565b6101446102ee3660046118ae565b6109b3565b60006102fe826109e1565b92915050565b606060028054610313906118e1565b80601f016020809104026020016040519081016040528092919081815260200182805461033f906118e1565b801561038c5780601f106103615761010080835404028352916020019161038c565b820191906000526020600020905b81548152906001019060200180831161036f57829003601f168201915b5050505050905090565b60006103a1826109ec565b506000908152600660205260409020546001600160a01b031690565b60006103c882610721565b9050806001600160a01b0316836001600160a01b03160361043a5760405162461bcd60e51b815260206004820152602160248201527f4552433732313a20617070726f76616c20746f2063757272656e74206f776e656044820152603960f91b60648201526084015b60405180910390fd5b336001600160a01b0382161480610456575061045681336109b3565b6104c85760405162461bcd60e51b815260206004820152603d60248201527f4552433732313a20617070726f76652063616c6c6572206973206e6f7420746f60448201527f6b656e206f776e6572206f7220617070726f76656420666f7220616c6c0000006064820152608401610431565b6104d28383610a4b565b505050565b6104e13382610ab9565b6104fd5760405162461bcd60e51b81526004016104319061191b565b6104d2838383610b18565b60008281526001602090815260408083208151808301909252546001600160a01b038116808352600160a01b9091046001600160601b031692820192909252829161057d5750604080518082019091526000546001600160a01b0381168252600160a01b90046001600160601b031660208201525b60208101516000906127109061059c906001600160601b03168761197e565b6105a69190611995565b915196919550909350505050565b6104d283838360405180602001604052806000815250610970565b600e546000906001600160a01b031633146105fc5760405162461bcd60e51b8152600401610431906119b7565b61060a600980546001019055565b600061061560095490565b90506106213382610c89565b6106b581600d8054610632906118e1565b80601f016020809104026020016040519081016040528092919081815260200182805461065e906118e1565b80156106ab5780601f10610680576101008083540402835291602001916106ab565b820191906000526020600020905b81548152906001019060200180831161068e57829003601f168201915b5050505050610e22565b600e546106cd9082906001600160a01b031685610eb5565b600f546106e4906001600160a01b03166001610863565b90505b919050565b600e546001600160a01b031633146107165760405162461bcd60e51b8152600401610431906119b7565b6104d2838383610eb5565b6000818152600460205260408120546001600160a01b0316806106e45760405162461bcd60e51b8152602060048201526018602482015277115490cdcc8c4e881a5b9d985b1a59081d1bdad95b88125160421b6044820152606401610431565b60006001600160a01b0382166107eb5760405162461bcd60e51b815260206004820152602960248201527f4552433732313a2061646472657373207a65726f206973206e6f7420612076616044820152683634b21037bbb732b960b91b6064820152608401610431565b506001600160a01b031660009081526005602052604090205490565b6060600d8054610313906118e1565b600e546001600160a01b031633146108405760405162461bcd60e51b8152600401610431906119b7565b600090815260016020526040812055565b50565b606060038054610313906118e1565b61086e338383610fc3565b5050565b60603361087e83610721565b6001600160a01b0316146108de5760405162461bcd60e51b815260206004820152602160248201527f4f6e6c7920746f6b656e206f776e65722063616e2067657420646174612075726044820152601b60fa1b6064820152608401610431565b600a80546108eb906118e1565b80601f0160208091040260200160405190810160405280929190818152602001828054610917906118e1565b80156109645780601f1061093957610100808354040283529160200191610964565b820191906000526020600020905b81548152906001019060200180831161094757829003601f168201915b50505050509050919050565b61097a3383610ab9565b6109965760405162461bcd60e51b81526004016104319061191b565b6109a284848484611091565b50505050565b60606102fe826110c4565b6001600160a01b03918216600090815260076020908152604080832093909416825291909152205460ff1690565b60006102fe826111cc565b6000818152600460205260409020546001600160a01b03166108515760405162461bcd60e51b8152602060048201526018602482015277115490cdcc8c4e881a5b9d985b1a59081d1bdad95b88125160421b6044820152606401610431565b600081815260066020526040902080546001600160a01b0319166001600160a01b0384169081179091558190610a8082610721565b6001600160a01b03167f8c5be1e5ebec7d5bd14f71427d1e84f3dd0314c0f7b2291e5b200ac8c7c3b92560405160405180910390a45050565b600080610ac583610721565b9050806001600160a01b0316846001600160a01b03161480610aec5750610aec81856109b3565b80610b105750836001600160a01b0316610b0584610396565b6001600160a01b0316145b949350505050565b826001600160a01b0316610b2b82610721565b6001600160a01b031614610b515760405162461bcd60e51b8152600401610431906119ee565b6001600160a01b038216610bb35760405162461bcd60e51b8152602060048201526024808201527f4552433732313a207472616e7366657220746f20746865207a65726f206164646044820152637265737360e01b6064820152608401610431565b610bc0838383600161120c565b826001600160a01b0316610bd382610721565b6001600160a01b031614610bf95760405162461bcd60e51b8152600401610431906119ee565b600081815260066020908152604080832080546001600160a01b03199081169091556001600160a01b0387811680865260058552838620805460001901905590871680865283862080546001019055868652600490945282852080549092168417909155905184937fddf252ad1be2c89b69c2b068fc378daa952ba7f163c4a11628f55a4df523b3ef91a4505050565b6001600160a01b038216610cdf5760405162461bcd60e51b815260206004820181905260248201527f4552433732313a206d696e7420746f20746865207a65726f20616464726573736044820152606401610431565b6000818152600460205260409020546001600160a01b031615610d445760405162461bcd60e51b815260206004820152601c60248201527f4552433732313a20746f6b656e20616c7265616479206d696e746564000000006044820152606401610431565b610d5260008383600161120c565b6000818152600460205260409020546001600160a01b031615610db75760405162461bcd60e51b815260206004820152601c60248201527f4552433732313a20746f6b656e20616c7265616479206d696e746564000000006044820152606401610431565b6001600160a01b038216600081815260056020908152604080832080546001019055848352600490915280822080546001600160a01b0319168417905551839291907fddf252ad1be2c89b69c2b068fc378daa952ba7f163c4a11628f55a4df523b3ef908290a45050565b6000828152600460205260409020546001600160a01b0316610e9d5760405162461bcd60e51b815260206004820152602e60248201527f45524337323155524953746f726167653a2055524920736574206f66206e6f6e60448201526d32bc34b9ba32b73a103a37b5b2b760911b6064820152608401610431565b60008281526008602052604090206104d28282611a81565b6127106001600160601b0382161115610f235760405162461bcd60e51b815260206004820152602a60248201527f455243323938313a20726f79616c7479206665652077696c6c206578636565646044820152692073616c65507269636560b01b6064820152608401610431565b6001600160a01b038216610f795760405162461bcd60e51b815260206004820152601b60248201527f455243323938313a20496e76616c696420706172616d657465727300000000006044820152606401610431565b6040805180820182526001600160a01b0393841681526001600160601b0392831660208083019182526000968752600190529190942093519051909116600160a01b029116179055565b816001600160a01b0316836001600160a01b0316036110245760405162461bcd60e51b815260206004820152601960248201527f4552433732313a20617070726f766520746f2063616c6c6572000000000000006044820152606401610431565b6001600160a01b03838116600081815260076020908152604080832094871680845294825291829020805460ff191686151590811790915591519182527f17307eab39ab6107e8899845ad3d59bd9653f200f220920489ca2b5937696c31910160405180910390a3505050565b61109c848484610b18565b6110a884848484611294565b6109a25760405162461bcd60e51b815260040161043190611b41565b60606110cf826109ec565b600082815260086020526040812080546110e8906118e1565b80601f0160208091040260200160405190810160405280929190818152602001828054611114906118e1565b80156111615780601f1061113657610100808354040283529160200191611161565b820191906000526020600020905b81548152906001019060200180831161114457829003601f168201915b50505050509050600061117f60408051602081019091526000815290565b90508051600003611191575092915050565b8151156111c35780826040516020016111ab929190611b93565b60405160208183030381529060405292505050919050565b610b1084611395565b60006001600160e01b031982166380ac58cd60e01b14806111fd57506001600160e01b03198216635b5e139f60e01b145b806102fe57506102fe82611409565b60018111156109a2576001600160a01b03841615611252576001600160a01b0384166000908152600560205260408120805483929061124c908490611bc2565b90915550505b6001600160a01b038316156109a2576001600160a01b03831660009081526005602052604081208054839290611289908490611bd5565b909155505050505050565b60006001600160a01b0384163b1561138a57604051630a85bd0160e11b81526001600160a01b0385169063150b7a02906112d8903390899088908890600401611be8565b6020604051808303816000875af1925050508015611313575060408051601f3d908101601f1916820190925261131091810190611c25565b60015b611370573d808015611341576040519150601f19603f3d011682016040523d82523d6000602084013e611346565b606091505b5080516000036113685760405162461bcd60e51b815260040161043190611b41565b805181602001fd5b6001600160e01b031916630a85bd0160e11b149050610b10565b506001949350505050565b60606113a0826109ec565b60006113b760408051602081019091526000815290565b905060008151116113d75760405180602001604052806000815250611402565b806113e18461143e565b6040516020016113f2929190611b93565b6040516020818303038152906040525b9392505050565b60006001600160e01b0319821663152a902d60e11b14806102fe57506301ffc9a760e01b6001600160e01b03198316146102fe565b6060600061144b836114d1565b600101905060008167ffffffffffffffff81111561146b5761146b6117bc565b6040519080825280601f01601f191660200182016040528015611495576020820181803683370190505b5090508181016020015b600019016f181899199a1a9b1b9c1cb0b131b232b360811b600a86061a8153600a850494508461149f57509392505050565b60008072184f03e93ff9f4daa797ed6e38ed64bf6a1f0160401b83106115105772184f03e93ff9f4daa797ed6e38ed64bf6a1f0160401b830492506040015b6d04ee2d6d415b85acef8100000000831061153c576d04ee2d6d415b85acef8100000000830492506020015b662386f26fc10000831061155a57662386f26fc10000830492506010015b6305f5e1008310611572576305f5e100830492506008015b612710831061158657612710830492506004015b60648310611598576064830492506002015b600a83106106e45760010192915050565b6001600160e01b03198116811461085157600080fd5b6000602082840312156115d157600080fd5b8135611402816115a9565b60005b838110156115f75781810151838201526020016115df565b50506000910152565b600081518084526116188160208601602086016115dc565b601f01601f19169290920160200192915050565b6020815260006114026020830184611600565b60006020828403121561165157600080fd5b5035919050565b80356001600160a01b03811681146106e757600080fd5b6000806040838503121561168257600080fd5b61168b83611658565b946020939093013593505050565b6000806000606084860312156116ae57600080fd5b6116b784611658565b92506116c560208501611658565b9150604084013590509250925092565b600080604083850312156116e857600080fd5b50508035926020909101359150565b80356001600160601b03811681146106e757600080fd5b60006020828403121561172057600080fd5b611402826116f7565b60008060006060848603121561173e57600080fd5b8335925061174e60208501611658565b915061175c604085016116f7565b90509250925092565b60006020828403121561177757600080fd5b61140282611658565b6000806040838503121561179357600080fd5b61179c83611658565b9150602083013580151581146117b157600080fd5b809150509250929050565b634e487b7160e01b600052604160045260246000fd5b600080600080608085870312156117e857600080fd5b6117f185611658565b93506117ff60208601611658565b925060408501359150606085013567ffffffffffffffff8082111561182357600080fd5b818701915087601f83011261183757600080fd5b813581811115611849576118496117bc565b604051601f8201601f19908116603f01168101908382118183101715611871576118716117bc565b816040528281528a602084870101111561188a57600080fd5b82602086016020830137600060208483010152809550505050505092959194509250565b600080604083850312156118c157600080fd5b6118ca83611658565b91506118d860208401611658565b90509250929050565b600181811c908216806118f557607f821691505b60208210810361191557634e487b7160e01b600052602260045260246000fd5b50919050565b6020808252602d908201527f4552433732313a2063616c6c6572206973206e6f7420746f6b656e206f776e6560408201526c1c881bdc88185c1c1c9bdd9959609a1b606082015260800190565b634e487b7160e01b600052601160045260246000fd5b80820281158282048414176102fe576102fe611968565b6000826119b257634e487b7160e01b600052601260045260246000fd5b500490565b6020808252601d908201527f4f6e6c7920646174612063726561746f722063616e20646f2074686973000000604082015260600190565b60208082526025908201527f4552433732313a207472616e736665722066726f6d20696e636f72726563742060408201526437bbb732b960d91b606082015260800190565b601f8211156104d257600081815260208120601f850160051c81016020861015611a5a5750805b601f850160051c820191505b81811015611a7957828155600101611a66565b505050505050565b815167ffffffffffffffff811115611a9b57611a9b6117bc565b611aaf81611aa984546118e1565b84611a33565b602080601f831160018114611ae45760008415611acc5750858301515b600019600386901b1c1916600185901b178555611a79565b600085815260208120601f198616915b82811015611b1357888601518255948401946001909101908401611af4565b5085821015611b315787850151600019600388901b60f8161c191681555b5050505050600190811b01905550565b60208082526032908201527f4552433732313a207472616e7366657220746f206e6f6e20455243373231526560408201527131b2b4bb32b91034b6b83632b6b2b73a32b960711b606082015260800190565b60008351611ba58184602088016115dc565b835190830190611bb98183602088016115dc565b01949350505050565b818103818111156102fe576102fe611968565b808201808211156102fe576102fe611968565b6001600160a01b0385811682528416602082015260408101839052608060608201819052600090611c1b90830184611600565b9695505050505050565b600060208284031215611c3757600080fd5b8151611402816115a956fea26469706673582212209fde93521b6a8d747a92ab87d3c3ffa2a3aea157445661d844fea511f8c4f7e864736f6c63430008110033",
  "linkReferences": {},
  "deployedLinkReferences": {}
}